:100000000C9434000C9451000C9451000C94510049
:100010000C9451000C9451000C9451000C9451001C
:100020000C9451000C9451000C9451000C949D02BE
:100030000C9451000C9451000C9451000C945100FC
:100040000C9451000C9451000C9451000C945100EC
:100050000C9451000C9451000C9451000C945100DC
:100060000C9451000C94510011241FBECFEFD8E026
:10007000DEBFCDBF11E0A0E0B1E0E6EDFCE002C0E4
:1000800005900D92AC33B107D9F721E0ACE3B1E0B4
:1000900001C01D92AC34B207E1F70E942A020C9411
:1000A00069060C940000ECE7F0E0808180648083B6
:1000B000EAE7F0E0808181608083808182608083D4
:1000C0008081846080838081806880838081806477
:1000D00080830895ECE7F0E09081907F9083908199
:1000E000892B8083EAE7F0E08081806480838091BF
:1000F0007A0086FDFCCF8091780090917900089578
:1001000041E065E083E00E941B0141E066E083E09E
:100110000E941B0141E067E083E00E941B010895FB
:100120008130B1F018F0823031F1089540E065E09F
:1001300083E00E941B0141E066E083E00E941B0116
:1001400041E067E083E00E947E0110920001089583
:1001500041E065E083E00E941B0140E066E083E04F
:100160000E941B0141E067E083E00E947E0181E084
:1001700080930001089560E083E00E947201089579
:1001800090E090934601809345018091000188237F
:1001900019F0813039F0089541E066E083E00E9473
:1001A0007E01089541E065E083E00E947E010895AC
:1001B0006FEF83E00E9472012FE986E891E0215001
:1001C00080409040E1F700C0000060E083E00E94C2
:1001D000720182E080930001109246011092450165
:1001E00008956817790760F49C01261B370B253B9F
:1001F0003105A8F4243B3105A0F0243B310599F0EA
:100200008617970758F4681B790B653B710568F4EE
:10021000643B710560F0643B710559F0089581E01D
:10022000089580E0089581E0089580E0089581E0D8
:10023000089580E00895442359F1413009F051C0F8
:10024000823081F08330C9F0813009F04AC024B196
:1002500081E090E002C0880F991F6A95E2F7822B37
:1002600084B9089527B181E090E002C0880F991FFA
:100270006A95E2F7822B87B908952AB181E090E070
:1002800002C0880F991F6A95E2F7822B8AB90895F8
:10029000823081F08330D1F0813019F524B181E0D2
:1002A00090E002C0880F991F6A95E2F7809582233B
:1002B00084B9089527B181E090E002C0880F991FAA
:1002C0006A95E2F78095822387B908952AB181E083
:1002D00090E002C0880F991F6A95E2F7809582230B
:1002E0008AB90895823031F0833031F0813029F4B9
:1002F00065B9089568B908956BB90895442359F113
:10030000413009F051C0823081F08330C9F0813032
:1003100009F04AC025B181E090E002C0880F991F22
:100320006A95E2F7822B85B9089528B181E090E0C3
:1003300002C0880F991F6A95E2F7822B88B9089549
:100340002BB181E090E002C0880F991F6A95E2F717
:10035000822B8BB90895823081F08330D1F08130C7
:1003600019F525B181E090E002C0880F991F6A95C8
:10037000E2F78095822385B9089528B181E090E065
:1003800002C0880F991F6A95E2F78095822388B989
:1003900008952BB181E090E002C0880F991F6A9503
:1003A000E2F7809582238BB9089540E064E083E012
:1003B0000E941B0141E063E083E00E941B0141E0D9
:1003C00062E083E00E941B0100000895EF92FF921B
:1003D0001F93CF93DF9340E062E083E00E947E01B1
:1003E000000010E0C0E0D0E016C040E063E083E031
:1003F0000E947E01000041E063E083E00E947E01F4
:100400000000CC0FDD1F89B184FBEE24E0F8F12C55
:10041000CE29DF291F5F1C3040F341E062E083E01A
:100420000E947E01CE01DF91CF911F91FF90EF904E
:1004300008950E94E601BC0180E090E00E946D05F5
:1004400020E030E046E351E40E94CC040E943E05E7
:10045000CB0108950E9480000E94D5010E94D50220
:100460000E9453000E943D030E94160480913F01A8
:10047000909140018F3F910511F4109246010E9426
:10048000480380910101811102C00E9435048091CE
:100490000101813009F043C00E940A030E940B044D
:1004A00080E00E946A0080399140C8F581E00E9496
:1004B0006A008039914098F580914B0190914C01F0
:1004C000029769F1C0913F01D09140010E94190249
:1004D000BC01CE010E94F1000E9490008AE00E94BF
:1004E000C0000DC00E9419024AE050E062E071E0D5
:1004F0000E94FB050E94F6028AE00E94EF020E9421
:1005000019029E01281B390B2330310558F70E9430
:10051000D80082E090E090934C0180934B010E94C0
:1005200019024AE050E062E071E00E94FB050E947F
:10053000F6028AE00E94EF02A2CF1F920F920FB63E
:100540000F9211242F933F934F935F936F937F9359
:100550008F939F93AF93BF93EF93FF9380913C0151
:100560008F5F80933C01813079F410923C010E94AE
:1005700019024AE050E062E071E00E94FB050E942F
:10058000F6028AE00E94EF02FF91EF91BF91AF91D6
:100590009F918F917F916F915F914F913F912F919B
:1005A0000F900FBE0F901F9018958BB140E060E048
:1005B0000E941B018BB141E061E00E941B01E1EC54
:1005C000F0E0808188618083E2ECF0E080818660E9
:1005D00080831092C50087E68093C40008959091AF
:1005E000C00095FFFCCF8093C6000895CF93C0E074
:1005F00007C0FC01EE5FFE4F80810E94EF02CF5FDB
:100600008C2F90E0FC01EE5FFE4F20812111F1CF95
:10061000CF91089580E00E946A008139914018F0DE
:1006200081E08093480181E00E946A008139914015
:1006300018F081E08093490180E00E946A008039CF
:10064000914010F41092480181E00E946A008039C4
:10065000914010F41092490180E00E946A008139B3
:10066000914050F081E00E946A008139914020F071
:10067000E8E4F1E011821082089540E064E082E055
:100680000E941B0140E065E082E00E941B0108958A
:10069000CF93DF9385E00E946A00EC0184E00E9422
:1006A0006A00C13921E0D20740F0803921E0920789
:1006B00020F41092020110920101813921E0920789
:1006C00050F0C03921E0D20730F421E030E030931F
:1006D000020120930101803921E0920720F4C03902
:1006E00021E0D20730F08139914048F0C139D14042
:1006F00030F082E090E09093020180930101DF915D
:10070000CF9108950F931F93CF93DF9380914B0167
:100710008823A1F100914301109144010E94190224
:10072000BC01C8010E94F1000E9490008AE00E9472
:10073000C00010C0C0910201D09103010E941902B3
:100740004AE050E0BE010E94FB050E94F6028AE0EA
:100750000E94EF020E9419029801281B390B2330D6
:10076000310540F70E94D80010924B01809143015F
:100770009091440190933E0180933D01DF91CF9190
:100780001F910F9108950F931F93CF93DF93809143
:100790004B018130D9F100914101109142010E9439
:1007A0001902BC01C8010E94F1000E9490008AE079
:1007B0000E94C00010C0C0910201D09103010E94AC
:1007C00019024AE050E0BE010E94FB050E94F602B9
:1007D0008AE00E94EF020E9419029801281B390B3F
:1007E000C901992324F488279927821B930B029728
:1007F00014F70E94D800809141019091420190939A
:100800003E0180933D0181E080934B01DF91CF91C8
:100810001F910F9108958091490181110E94C30396
:100820008091480181110E948203089580913A01CC
:1008300090913B010E943B069093440180934301B9
:1008400080913801909139010E943B0690934201BA
:100850008093410180913601909137010E943B06BF
:100860009093400180933F01089580E00E949000A2
:100870008AE00E94C0002FEF8FE097E22150804075
:100880009040E1F700C000000E94D8002FEF89E6F9
:1008900098E1215080409040E1F700C000000E94A4
:1008A0001902909344018093430181E00E949000DB
:1008B0008AE00E94C0002FEF8FE097E22150804035
:1008C0009040E1F700C000000E94D8002FEF89E6B9
:1008D00098E1215080409040E1F700C000000E9464
:1008E000190290934201809341012091430130917C
:1008F0004401821793077CF4281B390BA90112F4D9
:100900004F5F5F4F55954795480F591F50934001D2
:1009100040933F011FC0280F391F332314F42F5F6A
:100920003F4F359527953093400120933F014091EB
:10093000340150913501552314F44F5F5F4F5595A5
:1009400047954217530734F4241B350B309340016D
:1009500020933F01BC0180913801909139010E94A0
:100960004106609143017091440180913A01909158
:100970003B010E94410660913F01709140018091CE
:100980003601909137010E94410681E090E09093FA
:1009900047018093460108950E94E0040C94C1052C
:1009A0000E94BA0558F00E94B30540F029F45F3F59
:1009B00029F00C94AA0551110C94F5050C94B0057E
:1009C0000E94D20568F39923B1F3552391F3951B47
:1009D000550BBB27AA2762177307840738F09F5F60
:1009E0005F4F220F331F441FAA1FA9F335D00E2ECD
:1009F0003AF0E0E832D091505040E695001CCAF73A
:100A00002BD0FE2F29D0660F771F881FBB1F2617FC
:100A100037074807AB07B0E809F0BB0B802DBF01D3
:100A2000FF2793585F4F3AF09E3F510578F00C94A2
:100A3000AA050C94F5055F3FE4F3983ED4F3869540
:100A400077956795B795F7959F5FC9F7880F911DC3
:100A50009695879597F90895E1E0660F771F881FAF
:100A6000BB1F621773078407BA0720F0621B730B62
:100A7000840BBA0BEE1F88F7E09508950E94DA0503
:100A800088F09F5798F0B92F9927B751B0F0E1F04F
:100A9000660F771F881F991F1AF0BA95C9F714C0FF
:100AA000B13091F00E94F405B1E008950C94F40582
:100AB000672F782F8827B85F39F0B93FCCF3869538
:100AC00077956795B395D9F73EF490958095709595
:100AD00061957F4F8F4F9F4F0895E89409C097FB12
:100AE0003EF490958095709561957F4F8F4F9F4F05
:100AF0009923A9F0F92F96E9BB279395F695879549
:100B000077956795B795F111F8CFFAF4BB0F11F40B
:100B100060FF1BC06F5F7F4F8F4F9F4F16C08823B2
:100B200011F096E911C0772321F09EE8872F762FE8
:100B300005C0662371F096E8862F70E060E02AF029
:100B40009A95660F771F881FDAF7880F9695879515
:100B500097F9089597F99F6780E870E060E008953D
:100B60009FEF80EC089500240A94161617061806C5
:100B70000906089500240A941216130614060506A1
:100B80000895092E0394000C11F4882352F0BB0F32
:100B900040F4BF2B11F460FF04C06F5F7F4F8F4F95
:100BA0009F4F089557FD9058440F551F59F05F3FD0
:100BB00071F04795880F97FB991F61F09F3F79F07F
:100BC00087950895121613061406551FF2CF469501
:100BD000F1DF08C0161617061806991FF1CF869583
:100BE0007105610508940895E894BB276627772767
:100BF000CB0197F908954532510520F4423010F0A9
:100C00000C940606FB011082CB010895BB274A30E5
:100C100031F4992322F4BDE2909581959F4F0C9475
:100C20001206BB27FB015527AA27880F991FAA1F69
:100C3000A41710F0A41B83955051B9F7A05DAA33F7
:100C400008F0A95DA193009779F7B111B1931192C2
:100C5000CB010C942B06DC01FC01672F71917723EB
:100C6000E1F7329704C07C916D9370836291AE1767
:100C7000BF07C8F30895A8E1B0E042E050E00C944B
:100C800049060196272F0E9458060C945706DC014E
:100C9000CB01FC01F999FECF06C0F2BDE1BDF89A87
:100CA000319600B40D9241505040B8F70895262F68
:100CB000F999FECF92BD81BDF89A019700B4021652
:100CC00039F01FBA20BD0FB6F894FA9AF99A0FBE00
:060CD0000895F894FFCF27
:100CD60002026600000000000000000000000000A4
:100CE60000000000000000000000000000000000FE
:100CF60000000000000000000000000000000000EE
:0C0D060000000000680100002000100048
:00000001FF
