S020000050726F706F74696F6E616C5F56656E74696C5F31364D485A2E73726563E7
S11300000C9434000C9451000C9451000C94510045
S11300100C9451000C9451000C9451000C94510018
S11300200C9451000C9451000C9451000C947202E5
S11300300C9451000C9451000C9451000C945100F8
S11300400C9451000C9451000C9451000C945100E8
S11300500C9451000C9451000C9451000C945100D8
S11300600C9451000C94510011241FBECFEFD8E022
S1130070DEBFCDBF11E0A0E0B1E0E8E4FCE002C0E7
S113008005900D92AC33B107D9F721E0ACE3B1E0B0
S113009001C01D92AC34B207E1F70E9401020C9436
S11300A022060C940000ECE7F0E0808180648083F9
S11300B0EAE7F0E0808181608083808182608083D0
S11300C08081846080838081806880838081806473
S11300D08083089590917C00907F90937C00909110
S11300E07C00892B80937C0080917A0080648093CB
S11300F07A0080917A0086FDFCCF809178009091FF
S11301007900089541E065E083E00E94060141E042
S113011066E083E00E94060141E067E083E00C941E
S11301200601CF93C82F8130D1F038F0823041F5E9
S113013060E083E0CF910C94540140E065E083E0FB
S11301400E94060141E066E083E00E94060141E06E
S113015067E083E00E9460011092000111C041E059
S113016065E083E00E94060140E066E083E00E94CF
S1130170060141E067E083E00E946001C093000152
S1130180CF91089590E0909346018093450180912A
S11301900001882319F0813021F0089541E066E0E0
S11301A002C041E065E083E00C9460016FEF83E0FE
S11301B00E9454012FE986E891E02150804090404C
S11301C0E1F700C0000060E083E00E94540182E097
S11301D0809300011092460110924501089568171A
S11301E0790740F49C01261B370B81E0243B310541
S11301F060F409C08617970740F4681B790B81E007
S1130200643B710510F080E008950895442329F1BA
S1130210413009F048C0823071F08330A9F0813058
S113022009F041C024B181E090E001C0880F6A95D3
S1130230EAF7822B21C027B181E090E001C0880F4A
S11302406A95EAF7822B23C02AB181E090E001C0CD
S1130250880F6A95EAF7822B25C0823079F08330C3
S1130260C1F0813001F524B181E090E001C0880F34
S11302706A95EAF78095822384B9089527B181E0CD
S113028090E001C0880F6A95EAF78095822387B9C8
S113029008952AB181E090E001C0880F6A95EAF7D9
S11302A0809582238AB90895823031F0833031F009
S11302B0813029F465B9089568B908956BB9089532
S11302C0442329F1413009F048C0823071F0833071
S11302D0A9F0813009F041C025B181E090E001C06E
S11302E0880F6A95EAF7822B21C028B181E090E05B
S11302F001C0880F6A95EAF7822B23C02BB181E0F5
S113030090E001C0880F6A95EAF7822B25C08230FD
S113031079F08330C1F0813001F525B181E090E0BE
S113032001C0880F6A95EAF78095822385B90895FC
S113033028B181E090E001C0880F6A95EAF78095C2
S1130340822388B908952BB181E090E001C0880F21
S11303506A95EAF7809582238BB9089540E064E0BA
S113036083E00E94060141E063E083E00E9406010D
S113037041E062E083E00E94060100000895EF92EC
S1130380FF921F93CF93DF9340E062E083E00E94EB
S1130390600100001AE0C0E0D0E040E063E083E0E8
S11303A00E946001000041E063E083E00E9460017C
S11303B00000CC0FDD1F89B184FBEE24E0F8F12CA2
S11303C0CE29DF29115049F741E062E083E00E9421
S11303D06001CE01DF91CF911F91FF90EF900895BE
S11303E00E94BF01BC0180E090E00E9431052EED27
S11303F03DED45E350E40E9490040E940205CB01C8
S113040008950E9482000E94AE010E942B030E9464
S113041053000E948F030E94DB0380913F0190915F
S113042040018F3F910511F41092460102E010E063
S11304300E94990380910101811102C00E94FA0374
S113044080910101813009F040C00E945C030E9448
S1130450D00380E00E946A0080399140B0F581E0C9
S11304600E946A008039914080F580914B019091FF
S11304704C01029751F1C0913F01D09140010E947B
S1130480F001BC01CE010E94EF000E9491008AE0BD
S11304900E94C2000E94F0019E01281B390B2330E8
S11304A0310568F00E94F0014AE062E071E00E94C8
S11304B0BF050E944C038AE00E944503EBCF0E94D3
S11304C0D60010934C0100934B010E94F0014AE0C6
S11304D062E071E00E94BF050E944C038AE00E9422
S11304E04503A6CF1F920F920FB60F9211242F939C
S11304F03F934F935F936F937F938F939F93AF93A8
S1130500BF93EF93FF9380913C018F5F813019F08B
S113051080933C010EC010923C010E94F0014AE01D
S113052062E071E00E94BF050E944C038AE00E94D1
S11305304503FF91EF91BF91AF919F918F917F916F
S11305406F915F914F913F912F910F900FBE0F903C
S11305501F901895CF93DF9380914B0190914C019C
S1130560892B91F1C0914301D09144010E94F00183
S1130570BC01CE010E94EF000E9491008AE00E941B
S1130580C2000E94F0019E01281B390B2330310563
S113059068F00E94F0014AE062E071E00E94BF0549
S11305A00E944C038AE00E944503EBCF0E94D600D0
S11305B010924C0110924B0180914301909144019F
S11305C090933E0180933D01DF91CF910895CF93A5
S11305D0DF9380914B0190914C010197C9F1C09137
S11305E04101D09142010E94F001BC01CE010E9460
S11305F0EF000E9491008AE00E94C2000E94F00174
S11306009E01281B390BC90137FF03C091958195C1
S1130610910902976CF00E94F0014AE062E071E0F7
S11306200E94BF050E944C038AE00E944503E6CF66
S11306300E94D600809141019091420190933E0125
S113064080933D0181E090E090934C0180934B01B5
S1130650DF91CF9108958BB140E060E00E940601E4
S11306608BB141E061E00E940601E1ECF0E08081A1
S113067088618083E2ECF0E0808186608083109260
S1130680C50087E68093C40008959091C00095FF4B
S1130690FCCF8093C6000895CF93C0E0EC2FF0E028
S11306A0EE5FFE4F8081882329F080810E944503FC
S11306B0CF5FF4CFCF91089580E00E946A00813922
S11306C0914018F081E08093480181E00E946A0023
S11306D08139914018F081E08093490180E00E94C3
S11306E06A008039914010F41092480181E00E9420
S11306F06A008039914010F41092490180E00E9410
S11307006A008139914050F081E00E946A00813989
S1130710914020F01092490110924801089540E060
S113072064E082E00E94060140E065E082E00C940F
S11307300601CF93DF9385E00E946A00EC0184E018
S11307400E946A00C13921E0D20748F0803921E0D3
S11307509207E8F410920201109201011EC081393F
S113076021E0920738F0C03981E0D80798F481E09D
S113077090E008C08039914081F0C039D14068F4DC
S113078082E090E0909302018093010106C08039D9
S1130790914019F0C139D14098F7DF91CF91089574
S11307A08091490181110E94E702809148018111E1
S11307B00C94AA02089580913A0190913B010E9401
S11307C0F405909344018093430180913801909102
S11307D039010E94F4059093420180934101809174
S11307E03601909137010E94F40590934001809363
S11307F03F01089580E00E9491008AE00E94C200B7
S11308002FEF8FE097E2215080409040E1F700C045
S113081000000E94D6002FEF89E698E12150804025
S11308209040E1F700C000000E94F0019093440161
S11308308093430181E00E9491008AE00E94C200FB
S11308402FEF8FE097E2215080409040E1F700C005
S113085000000E94D6002FEF89E698E121508040E5
S11308609040E1F700C000000E94F0019093420123
S113087080934101209143013091440182179307F1
S11308803CF4281B390B35952795280F391F22C0B6
S1130890280F391F37FF02C02F5F3F4F359527952B
S11308A03093400120933F01409134015091350130
S11308B0BA0157FF02C06F5F7F4F75956795621746
S11308C0730764F457FF02C04F5F5F4F5595479518
S11308D0241B350B3093400120933F01BC018091D0
S11308E03801909139010E94FA0560914301709199
S11308F0440180913A0190913B010E94FA05609174
S11309003F017091400180913601909137010E941E
S1130910FA0581E090E090934701809346010895A1
S11309200E94A4040C9485050E947E0558F00E9440
S1130930770540F029F45F3F29F00C946E055111BE
S11309400C94B9050C9474050E94960568F39923D8
S1130950B1F3552391F3951B550BBB27AA276217B7
S11309607307840738F09F5F5F4F220F331F441FC4
S1130970AA1FA9F335D00E2E3AF0E0E832D09150F8
S11309805040E695001CCAF72BD0FE2F29D0660FE5
S1130990771F881FBB1F261737074807AB07B0E828
S11309A009F0BB0B802DBF01FF2793585F4F3AF02E
S11309B09E3F510578F00C946E050C94B9055F3F89
S11309C0E4F3983ED4F3869577956795B795F795B4
S11309D09F5FC9F7880F911D9695879597F908959C
S11309E0E1E0660F771F881FBB1F62177307840738
S11309F0BA0720F0621B730B840BBA0BEE1F88F747
S1130A00E09508950E949E0588F09F5798F0B92FAD
S1130A109927B751B0F0E1F0660F771F881F991F2F
S1130A201AF0BA95C9F714C0B13091F00E94B80514
S1130A30B1E008950C94B805672F782F8827B85F24
S1130A4039F0B93FCCF3869577956795B395D9F787
S1130A503EF490958095709561957F4F8F4F9F4F91
S1130A600895E89409C097FB3EF49095809570959D
S1130A7061957F4F8F4F9F4F9923A9F0F92F96E9E6
S1130A80BB279395F695879577956795B795F1115B
S1130A90F8CFFAF4BB0F11F460FF1BC06F5F7F4FF8
S1130AA08F4F9F4F16C0882311F096E911C077230A
S1130AB021F09EE8872F762F05C0662371F096E813
S1130AC0862F70E060E02AF09A95660F771F881FE2
S1130AD0DAF7880F9695879597F9089597F99F67A0
S1130AE080E870E060E008959FEF80EC08950024B2
S1130AF00A941616170618060906089500240A947F
S1130B0012161306140605060895092E0394000C04
S1130B1011F4882352F0BB0F40F4BF2B11F460FF93
S1130B2004C06F5F7F4F8F4F9F4F089557FD9058BC
S1130B30440F551F59F05F3F71F04795880F97FB9D
S1130B40991F61F09F3F79F0879508951216130657
S1130B501406551FF2CF4695F1DF08C01616170686
S1130B601806991FF1CF86957105610508940895BB
S1130B70E894BB2766277727CB0197F90895BB270D
S1130B804A3031F4992322F4BDE2909581959F4F28
S1130B900C94CB05BB27FB015527AA27880F991F67
S1130BA0AA1FA41710F0A41B83955051B9F7A05D98
S1130BB0AA3308F0A95DA193009779F7B111B19315
S1130BC01192CB010C94E405DC01FC01672F7191B7
S1130BD07723E1F7329704C07C916D93708362911F
S1130BE0AE17BF07C8F30895A8E1B0E042E050E0B3
S1130BF00C9402060196272F0E9411060C941006ED
S1130C00DC01CB01FC01F999FECF06C0F2BDE1BDC8
S1130C10F89A319600B40D9241505040B8F70895B7
S1130C20262FF999FECF92BD81BDF89A019700B4A1
S1130C30021639F01FBA20BD0FB6F894FA9AF99A41
S10B0C400FBE0895F894FFCFE4
S1130C48020266000000000000000000000000002E
S1130C580000000000000000000000000000000088
S1130C680000000000000000000000000000000078
S10F0C78000000006801000020001000D3
S9030000FC
